{
  "contractName": "TicketContract",
  "abi": [
    {
      "inputs": [],
      "stateMutability": "nonpayable",
      "type": "constructor"
    },
    {
      "inputs": [
        {
          "internalType": "uint256",
          "name": "",
          "type": "uint256"
        }
      ],
      "name": "allTicket",
      "outputs": [
        {
          "internalType": "uint256",
          "name": "price",
          "type": "uint256"
        },
        {
          "internalType": "address",
          "name": "owner",
          "type": "address"
        }
      ],
      "stateMutability": "view",
      "type": "function",
      "constant": true
    },
    {
      "inputs": [],
      "name": "owner",
      "outputs": [
        {
          "internalType": "address",
          "name": "",
          "type": "address"
        }
      ],
      "stateMutability": "view",
      "type": "function",
      "constant": true
    },
    {
      "inputs": [
        {
          "internalType": "uint256",
          "name": "index",
          "type": "uint256"
        }
      ],
      "name": "byTicket",
      "outputs": [],
      "stateMutability": "payable",
      "type": "function",
      "payable": true
    }
  ],
  "bytecode": "0x608060405260008054600160a060020a0319163317905534801561002257600080fd5b5060005b600a8110156100a35767016345785d8a0000600182600a811061004b5761004b6100a9565b60020201556000600182600a8110610065576100656100a9565b6002020160010160006101000a815481600160a060020a030219169083600160a060020a03160217905550808061009b906100d8565b915050610026565b50610118565b7f4e487b7100000000000000000000000000000000000000000000000000000000600052603260045260246000fd5b600060018201610111577f4e487b7100000000000000000000000000000000000000000000000000000000600052601160045260246000fd5b5060010190565b61023a806101276000396000f3fe608060405260043610610050577c010000000000000000000000000000000000000000000000000000000060003504630640979d81146100555780633b1bb9cc1461006a5780638da5cb5b146100ac575b600080fd5b6100686100633660046101bc565b6100e4565b005b34801561007657600080fd5b5061008a6100853660046101bc565b610191565b60408051928352600160a060020a039091166020830152015b60405180910390f35b3480156100b857600080fd5b506000546100cc90600160a060020a031681565b604051600160a060020a0390911681526020016100a3565b600a811080156100f2575060015b6100fb57600080fd5b6000600182600a8110610110576101106101d5565b6002020160010154600160a060020a03161461012b57600080fd5b600181600a811061013e5761013e6101d5565b600202015434101561014f57600080fd5b33600182600a8110610163576101636101d5565b6002020160010160006101000a815481600160a060020a030219169083600160a060020a0316021790555050565b600181600a81106101a157600080fd5b600202018054600190910154909150600160a060020a031682565b6000602082840312156101ce57600080fd5b5035919050565b7f4e487b7100000000000000000000000000000000000000000000000000000000600052603260045260246000fdfea2646970667358221220644a5a7f6d1d1f2b2ecb78e0919220bcff4dcb1fa845f0092aaad03746cc98a164736f6c63430008150033",
  "immutableReferences": {},
  "source": "pragma solidity ^0.8.0;\r\n\r\n uint256 constant TotalTickets =10 ;\r\n\r\n\r\ncontract TicketContract {\r\n    address public owner = msg.sender;\r\n\r\n    struct Ticket{\r\n        uint256 price;\r\n        address owner;\r\n    }\r\n\r\n\r\n    Ticket[TotalTickets] public allTicket;\r\n\r\n    constructor(){\r\n        for (uint256 i = 0; i < TotalTickets; i++) {\r\n            allTicket[i].price = 1e17;\r\n            allTicket[i].owner = address(0x0);\r\n        }\r\n    }\r\n    function byTicket(uint256 index) external payable {\r\n\r\n        require(index<TotalTickets && index >=0);\r\n        require(allTicket[index].owner==address(0x0));  \r\n        require(msg.value>=allTicket[index].price);\r\n        allTicket[index].owner = msg.sender;\r\n    }\r\n    \r\n\r\n}\r\n",
  "sourcePath": "C:\\Users\\manua\\OneDrive\\Desktop\\hackthon\\truffle\\contracts\\ticket.sol",
  "compiler": {
    "name": "solc",
    "version": "0.8.21+commit.d9974bed.Emscripten.clang"
  },
  "schemaVersion": "3.4.16",
  "updatedAt": "2024-02-02T22:58:05.265Z",
  "networkType": "ethereum",
  "devdoc": {
    "kind": "dev",
    "methods": {},
    "version": 1
  },
  "userdoc": {
    "kind": "user",
    "methods": {},
    "version": 1
  }
}